:100000000C941F010C9440010C9440010C9440018D
:100010000C9440010C9440010C9440010C9440015C
:100020000C9440010C9440010C9440010C9440014C
:100030000C9440010C9440010C9440010C9440013C
:100040000C9440010C9440010C9440010C9440012C
:100050000C9440010C9440010C9440010C9440011C
:100060000C9440010C9440010C9440010C9440010C
:100070000C9440010C9440010C9440010C944001FC
:100080000C9440010C9440010C9440010C944001EC
:100090000C9440010C9440010C9440010C94AC036E
:1000A0000C9440010C9440010C9440010C944001CC
:1000B0000C9440010C9440010C9440010C944001BC
:1000C0000C9440010C9440010C9440010C944001AC
:1000D0000C9440010C9440010C9440010C9440019C
:1000E0000C9440010C9411020C9485010C949A011B
:1000F0000C9488030C9461040C94F5010C94AF01EA
:100100000C942A020C948A024E414E494E4954598D
:10011000494E46CDCCCC3D0AD7233C17B7D13877D2
:10012000CC2B329595E6241FB14F0A0000204100E8
:1001300000C84200401C4620BCBE4CCA1B0E5AAE32
:10014000C59D7400407A10F35A00A0724E18090041
:1001500010A5D4E80000E87648170000E40B54022C
:100160000000CA9A3B000000E1F505000080969867
:1001700000000040420F000000A0860100000010B7
:100180002700000000E803000000006400000000F9
:10019000000A00000000000100000000002C76D8DA
:1001A00088DC674F0823DFC1DFAE59E1B1B796E5C0
:1001B000E3E453C63AE651997696E8E6C28426EB24
:1001C000898C9B62ED407C6FFCEFBC9C9F40F2BA37
:1001D000A56FA5F490055A2AF75C936B6CF9676DCF
:1001E000C11BFCE0E40D47FEF520E6B500D0ED9024
:1001F0002E0300943577050080841E080000204EF1
:100200000A000000C80C333333330F986E12831189
:1002100041EF8D2114893BE65516CFFEE6DB18D160
:10022000844B381BF77C1D901DA4BBE42420328432
:10023000725E228100C9F124ECA1E53D2700112462
:100240001FBECFEFD1E2DEBFCDBF00E00CBF12E09A
:10025000A0E0B2E0EAECF5E100E00BBF02C00790DD
:100260000D92A636B107D9F712E0A6E6B2E001C0BA
:100270001D92A537B107E1F70E945B040C94E30AD5
:100280000C940000E0ECF0E0808182608083E1EC7F
:10029000F0E080818861808386E08093C20089E1FC
:1002A00090E09093C5008093C4000895E1E2F1E0EE
:1002B00088E0808380ED93E090932901809328016A
:1002C000A3E7B0E08C9182608C938081856080830D
:1002D00008959091C00095FFFCCF8093C6009927A8
:1002E00087FD90950895CF93DF93EC018991882342
:1002F00019F00E946901FACFDF91CF910895A4E12E
:10030000B0E0E5E8F1E00C94A1044AE050E0BE0161
:100310006F5F7F4F0E940B05CE0101960E94730113
:100320006496E2E00C94BD04A4E1B0E0EAE9F1E0F7
:100330000C94A1042AE030E0AE014F5F5F4F0E94B1
:100340002C05CE0101960E9473016496E2E00C94A4
:10035000BD04A4E1B0E0EFEAF1E00C949F048E014B
:100360000F5F1F4F23E048E00E94C804C8010E94AD
:1003700073016496E4E00C94BB048091C600089578
:10038000CF92DF92EF92FF92CF93DF93CDB7DEB79C
:1003900064970FB6F894DEBF0FBECDBFFE01319655
:1003A000CF012091C60021932A30D9F70E94E90499
:1003B0006B017C010E94A90181E092E00E9473011F
:1003C000C701B60164960FB6F894DEBF0FBECDBF6D
:1003D000DF91CF91FF90EF90DF90CF900895A4E14F
:1003E000B0E0E5EFF1E00C949F04FE013196CF01FF
:1003F0002091C60021932A30D9F70E94ED048C0188
:100400000E947F0181E092E00E947301C80164961E
:10041000E4E00C94BB04A8E0B0E0E1E1F2E00C946D
:10042000A104FE01319698E0DF011D929A95E9F74B
:1004300090ED99838A836B8363E0CF010E9431033F
:100440002896E2E00C94BD04A8E0B0E0EAE2F2E015
:100450000C949B046B01F42E8E010F5F1F4F98E0EC
:10046000F80111929A95E9F790ED99838A8362E0F9
:10047000C8010E9431030E9410038111FCCF8091BA
:10048000660280FF3DC081ED8983EE24E394EF0C8A
:100490006E2DC8010E9431030E9410038111FCCF10
:1004A0008091660280FF2CC06E2DC8010E948203DD
:1004B000F1E0FF15B0F4F6944F2D50E0F801D601AD
:1004C00020E030E0808190E0982F88276181862BA2
:1004D0008D939D932F5F3F4F32962417350794F3EA
:1004E00005C0898190E0F601918380838BE70E94AB
:1004F000690183E092E00E9473018DE70E94690127
:100500002896E8E00C94B704A2E0B0E0EAE8F2E054
:100510000C949E04182F062FF42E41E0BE016F5F4D
:100520007F4F0E94240281E0F81207C091E0002E64
:1005300001C0990F0A94EAF701C090E069817A81BD
:10054000692B7A836983812F0E940B022296E5E052
:100550000C94BA0441E067E08BE60E9484022FE726
:1005600089EA93E0215080409040E1F700C000000C
:1005700063E08BE60E940B028FE99FE00197F1F7A1
:1005800000C0000064E089E10E940B028FE99FE057
:100590000197F1F700C0000060E18BE10E940B02BF
:1005A0008FE99FE00197F1F700C0000060E18CE166
:1005B0000E940B028FE99FE00197F1F700C0000055
:1005C00062E08AE10E940B028FE99FE00197F1F758
:1005D00000C0000041E063E08BE60E9484028FE9E6
:1005E0009FE00197F1F700C0000040E066E08BE675
:1005F0000E9484028FE99FE00197F1F700C000009C
:100600000895E9EBF0E080818360808382E080934D
:10061000B8008FEF8093BB0084E08093BC00089506
:100620008091710290917202019690937202809370
:100630007102893E934030F0109272021092710262
:1006400080E008958091BC0081700895109272023C
:10065000109271020E9410038111FCCF8091000260
:1006600008951F93CF93DF93EC01162F109272021F
:10067000109271020E9410038111FCCF1093680246
:1006800088818093690280FF16C01092660288EF0D
:100690008093000285EA8093BC008BE70E94690189
:1006A00080E192E00E9473018DE70E946901DF9171
:1006B000CF911F9108958BE70E94690180E292E03B
:1006C0000E9473018DE70E946901219629E632E0BC
:1006D000F90131968E2F821B8117B8F6899180839C
:1006E000F8CF10927202109271020E9410038111D1
:1006F000FCCF1092660288EF8093000285EA809317
:10070000BC000895A2E0B0E0E8E8F3E00C94A00497
:10071000182F109272021092710269839A830E94BC
:10072000100369819A818111F8CF8091660280FD62
:1007300007C08091660281702296E3E00C94BC04AD
:10074000AAE6B2E0212FE12FF92F8E2F821B861708
:1007500080F78D918193F9CF1F920F920FB60F9270
:1007600011240BB60F922F933F934F935F936F9388
:100770007F938F939F93AF93BF93EF93FF9380915A
:10078000B9008832A9F140F4803181F1883181F1DA
:10079000883009F069C02AC0803409F457C028F4B1
:1007A000883309F061C085EA71C0803509F442C020
:1007B000883509F059C08091BB00E0916702F0E0F4
:1007C000E759FD4F808380916602816080936602C5
:1007D00084E98093BC008BE70E94690189E392E081
:1007E0000E9473018DE70E94690152C01092670256
:1007F0008BE70E94690185E392E00E9473018DE717
:100800000E946901E091670280916802E81758F43C
:1008100081E08E0F80936702F0E0E759FD4F808101
:100820008093BB001FC08091660281608093660246
:1008300084E92CC0E091670281E08E0F809367020B
:100840008091BB00F0E0E759FD4F80832091670263
:1008500030E08091680290E001972817390714F47E
:1008600085EC14C085E812C08091B9008093000225
:100870008BE70E94690188E592E00E9473018DE791
:100880000E94690184E98093BC0084E08093BC00ED
:10089000FF91EF91BF91AF919F918F917F916F9158
:1008A0005F914F913F912F910F900BBE0F900FBE14
:1008B0000F901F901895A2E0B0E0E1E6F4E00C94F0
:1008C000A10481B1886381B98FEF82B92FEF8DE3E5
:1008D00099E4215080409040E1F700C00000F89476
:1008E0000E9442010E94010378940E94AA0282E4BD
:1008F00090E09A83898341E0BE016F5F7F4F85E777
:100900000E9424028BE70E94690189810E9469018B
:100910008DE70E94690180E090E02296E2E00C946D
:10092000BD042F923F924F925F926F927F928F926F
:100930009F92AF92BF92CF92DF92EF92FF920F936E
:100940001F93CF93DF93CDB7DEB7CA1BDB0B0FB678
:10095000F894DEBF0FBECDBF19942A883988488825
:100960005F846E847D848C849B84AA84B984C884CB
:10097000DF80EE80FD800C811B81AA81B981CE0FC2
:10098000D11D0FB6F894DEBF0FBECDBFED010895A7
:10099000EF920F931F93CF93DF93E80147FD02C0BF
:1009A00034E001C034E1E42FFF27E7FDF095F7FFC5
:1009B00003C0F195E195F109E32E022F2E2FAE0130
:1009C0000E946805CE01DF91CF911F910F91EF90AA
:1009D0000895662777270C94F606FC018827992747
:1009E000E89421912032E9F3293010F02E30C8F339
:1009F0002B3241F02D3239F4689404C00E94600516
:100A0000820F911D219120532A30C0F31EF490953E
:100A100081959F4F0895FB019F01E8944230C4F0F7
:100A20004532B4F44A3029F497FB1EF49095819531
:100A30009F4F642F77270E949E0A805D8A330CF0B7
:100A4000895D8193CB010097A1F716F45DE2519384
:100A50001082C9010C946709FA01CF93FF93EF93B9
:100A6000223044F1253234F5C22FE894CA3049F4DB
:100A700097FB3EF490958095709561957F4F8F4FD1
:100A80009F4F2C2F332744275527FF93EF930E9426
:100A9000B20AEF91FF91605D6A330CF0695D61937A
:100AA000B901CA01605070408040904051F716F47F
:100AB000CDE2C19310828F919F91CF910C946709E1
:100AC0007AE0979F902D879F802D910D1124089596
:100AD0004F925F926F927F929F92AF92BF92CF920E
:100AE000DF92EF92FF920F931F93CF93DF93CDB7D7
:100AF000DEB729970FB6F894DEBF0FBECDBF6A01EF
:100B0000122FB02E2BE3201720F0FF24F394F00EC9
:100B100002C0BCE3FB2E0F2D27E0AE014F5F5F4FFD
:100B20000E946F08AC018981982F9970913031F043
:100B3000E1FC06C0E0FE06C090E205C09DE203C0F5
:100B40009BE201C090E0EE2DE07183FF3CC091116B
:100B500002C083E001C084E0811718F4212F281B14
:100B600001C020E0E1110BC0F601822F30E28823A2
:100B700019F031938150FBCFC20ED11C20E0992394
:100B800029F0D6019C93F60131966F01C6010396B8
:100B9000E2FE0AC03EE4D6013C9341E411964C9338
:100BA000119712963C9306C03EE6F601308341E66B
:100BB00041833283FC01322F40E2332309F442C0E7
:100BC00041933150FACF82FF44C0911102C083E0BB
:100BD00001C084E0811718F4212F281B01C020E0F8
:100BE000E1110BC0F601822F30E2882319F0319316
:100BF0008150FBCFC20ED11C20E0992329F0D601F1
:100C00009C93F60131966F01C6010396E2FE0BC07C
:100C100039E4D6013C933EE411963C93119736E4B7
:100C200012963C9307C039E6F60130833EE63183E5
:100C300036E63283FC01322F40E2332319F0419330
:100C40003150FBCFFC01E20FF11D10828EEF9FEFC0
:100C5000B7C0F1E0911101C0F0E06F2F70E0141601
:100C6000150624F49A012F5F3F4F02C021E030E0C7
:100C7000260F371FBB2029F06B2D70E06F5F7F4F71
:100C800002C060E070E0260F371F612F70E026176A
:100C900037071CF4121B212F01C020E03E2D3871B4
:100CA00059F4D601322F60E2332319F06D9331509D
:100CB000FBCFC20ED11C20E0FF2331F0D6019C9364
:100CC000B6016F5F7F4F6B01E1110BC0F601922FF0
:100CD00030E3992319F031939150FBCFC20ED11C10
:100CE00020E09F2D940F3A81782F7071A72E84FFFA
:100CF00003C0313309F49150191624F4993018F0D7
:100D000098E001C091E0E42F852F57FF02C0E0E09A
:100D100080E06E2F782FE0E0F0E0AEE29A2E3A010C
:100D2000691A71082A01461A570A0B2D10E011950D
:100D3000019511096F3F8FEF780729F4D6019C9236
:100D4000C60101966C014617570784F066167706B0
:100D50006CF47F01E40CF51CA1E0B0E0AC0FBD1F0A
:100D6000EA0EFB1ED7011196BC9002C090E3B92E8B
:100D7000615071093196C60101967C0160177107B7
:100D800024F0D601BC926C01D5CF6417750741F4ED
:100D9000363320F4353321F4A11002C081E3B82E9C
:100DA000F601B082F701822F90E2882319F0919327
:100DB0008150FBCFF701E20FF11D108280E090E03F
:100DC00029960FB6F894DEBF0FBECDBFDF91CF914D
:100DD0001F910F91FF90EF90DF90CF90BF90AF9059
:100DE0009F907F906F905F904F9008954F925F9289
:100DF0006F927F928F929F92AF92BF92CF92DF922B
:100E0000EF92FF920F931F93CF93DF93EC017B013F
:100E10006115710519F0DB018D939C938E010F5FB5
:100E20001F4F7880872D90E00E944709892B11F091
:100E3000E801F4CFBDE27B1205C00F5F1F4F798040
:100E4000C1E008C0EBE27E1204C08E010E5F1F4FAE
:100E50007980C0E06801F1E0CF1AD10843E050E0AA
:100E600060E171E0C6010E944F09892BF1F468012D
:100E700022E0C20ED11C45E050E06BE071E0C601FB
:100E80000E944F09892B21F4680187E0C80ED11C0C
:100E9000E114F10419F0D701CD92DC92C11105C122
:100EA00060E070E080E89FE709C143E050E068E05F
:100EB00071E0C6010E944F09892B51F4E114F1043D
:100EC00009F4F8C00E5F1F4FF70111830083F2C0D1
:100ED000680160E070E0CB0100E010E0F601D0EDC9
:100EE000D70DDA3058F52C2F2260622E2C2F287067
:100EF000C2FF05C0211128C00F5F1F4F25C022234C
:100F000011F001501109A5E0B0E09B01AC010E9475
:100F1000930A4B015C01880C991CAA1CBB1CC501DF
:100F2000B4016D0F711D811D911D6839A9E97A0702
:100F30008A07A9E19A0740F0C66005C0DE3F51F478
:100F4000C3FD44C0C8606C2EBFEFCB1ADB0A7080B3
:100F5000C62DC4CF2D2F2F7D2531C1F540814D32B7
:100F600011F4C06106C04B3221F0319621E030E02F
:100F700006C03296D60111964C9122E030E0A0EDE9
:100F8000A40FAA3018F0E21BF30B20C040E050E0A1
:100F90004038BCE05B075CF49A01220F331F220F3C
:100FA000331F420F531F440F551F4A0F511D3196D7
:100FB000DF0111972C91A0EDA20FAA3048F3C4FFD6
:100FC00003C0519541955109040F151FC1FF07C07A
:100FD000E114F10421F03197D701ED93FC930E94C5
:100FE0007B09C370C33019F06B017C0106C06B0133
:100FF0007C01F7FAF094F7F8F09420E030E0A901D2
:10100000C701B6010E947709882309F44BC017FF76
:1010100006C0119501951109C7E2D1E002C0CFE3E6
:10102000D1E05E01B8E1AB1AB1089C2CBD2DAE2D0C
:101030008F2C90E2E92EF12CFE01459055906590A1
:1010400074900E151F057CF0A3019201692D7B2F72
:101050008A2F982D0E94DC09962EB72FA82F892E53
:101060000E191F09EECF2497F594E794CA15DB05F6
:1010700019F7C92CDB2EEA2EF82C8E2D880F8F2D18
:10108000881F8F3F49F020E030E0A901C701B60179
:101090000E947709811106C082E290E09093740269
:1010A00080937302C701B60109C060E070E080E878
:1010B0009FEF04C060E070E080EC9FE7DF91CF918C
:1010C0001F910F91FF90EF90DF90CF90BF90AF9066
:1010D0009F908F907F906F905F904F9008952830F1
:1010E00008F027E03327DA01990F311D87FD916061
:1010F00000966105710539F432602E5F3D9330E34F
:101100002A95E1F708959F3F30F080387105610519
:1011100009F03C5F3C5F3D93913008F08068911D81
:10112000DF93CF931F930F93FF92EF92192F987F26
:101130009695E92F96959695E90FFF27E356FE4F72
:1011400099273327EE24FF24A701E701059008948F
:10115000079428F4360FE71EF81E491F511D660F2D
:10116000771F881F991F0694A1F70590079428F40C
:10117000E70EF81E491F561FC11D770F881F991FC4
:10118000661F0694A1F70590079428F4F80E491FEE
:10119000561FC71FD11D880F991F661F771F069402
:1011A000A1F70590079420F4490F561FC71FD81FB9
:1011B000990F661F771F881F0694A9F784911095D1
:1011C000177041F0D695C79557954795F794E794D2
:1011D0001A95C1F7E3E4F1E0689415901591359103
:1011E0006591959105907FE27395E118F10A430BA3
:1011F000560BC90BD009C0F7E10CF11E431F561F57
:10120000C91FD01D7EF4703311F48A95E6CFE8949F
:10121000015030F0080F0AF40027021708F4202FBD
:101220002395022F7A3328F079E37D932A95E9F705
:1012300010C07D932A9589F6069497956795379502
:1012400017951794E118F10A430B560BC90BD009F7
:1012500098F023957E9173957A3308F070E37C9330
:101260002013B8F77E9170617D9330F0839571E320
:101270007D9370E32A95E1F71124EF90FF900F9191
:101280001F91CF91DF91992787FD90950895911136
:10129000F6C0803219F089508550D0F70895FB01CF
:1012A000DC014150504088F08D9181341CF08B3529
:1012B0000CF4805E659161341CF06B350CF4605E5B
:1012C000861B611171F3990B0895881BFCCFDC011B
:1012D000FC01672F71917723E1F7329704C07C916D
:1012E0006D9370836291AE17BF07C8F3089540D025
:1012F00008F481E00895E89409C097FB3EF49095C6
:101300008095709561957F4F8F4F9F4F9923A9F0DE
:10131000F92F96E9BB279395F6958795779567956D
:10132000B795F111F8CFFAF4BB0F11F460FF1BC0B1
:101330006F5F7F4F8F4F9F4F16C0882311F096E944
:1013400011C0772321F09EE8872F762F05C06623F2
:1013500071F096E8862F70E060E02AF09A95660FAB
:10136000771F881FDAF7880F9695879597F9089564
:10137000990F0008550FAA0BE0E8FEEF16161706A6
:10138000E807F907C0F012161306E407F50798F00E
:10139000621B730B840B950B39F40A2661F0232B27
:1013A000242B252B21F408950A2609F4A140A695A3
:1013B0008FEF811D811D08950BD07BC06CD028F06C
:1013C00071D018F0952309F05DC062C01124A5C04A
:1013D00081D0A0F3959FD1F3950F50E0551F629FE8
:1013E000F001729FBB27F00DB11D639FAA27F00D7E
:1013F000B11DAA1F649F6627B00DA11D661F829FA5
:101400002227B00DA11D621F739FB00DA11D621F89
:10141000839FA00D611D221F749F3327A00D611DA6
:10142000231F849F600D211D822F762F6A2F112488
:101430009F5750408AF0E1F088234AF0EE0FFF1FDB
:10144000BB1F661F771F881F91505040A9F79E3F12
:10145000510570F017C061C05F3FECF3983EDCF3BC
:10146000869577956795B795F795E7959F5FC1F74F
:10147000FE2B880F911D9695879597F908959927CA
:101480008827089597F99F6780E870E060E00895E5
:101490009FEF80EC089500240A941616170618068C
:1014A0000906089500240A94121613061406050668
:1014B0000895092E0394000C11F4882352F0BB0FF9
:1014C00040F4BF2B11F460FF04C06F5F7F4F8F4F5C
:1014D0009F4F089557FD9058440F551F59F05F3F97
:1014E00071F04795880F97FB991F61F09F3F79F046
:1014F00087950895121613061406551FF2CF4695C8
:10150000F1DF08C0161617061806991FF1CF869549
:101510007105610508940895E894BB27662777272D
:10152000CB0197F908950E94D40AA59F900DB49F0E
:10153000900DA49F800D911D11240895AA1BBB1B23
:1015400051E107C0AA1FBB1FA617B70710F0A61BC3
:10155000B70B881F991F5A95A9F780959095BC01E4
:10156000CD010895A1E21A2EAA1BBB1BFD010DC0DF
:10157000AA1FBB1FEE1FFF1FA217B307E407F50743
:1015800020F0A21BB30BE40BF50B661F771F881F1F
:10159000991F1A9469F760957095809590959B01B5
:1015A000AC01BD01CF010895A29FB001B39FC0015E
:1015B000A39F700D811D1124911DB29F700D811D7F
:0A15C0001124911D0895F894FFCF47
:1015CA00F80A00676F7420726573706F6E73650036
:1015DA00737461727420636F6E646974696F6E00EC
:1015EA00636F7079696E67206461746120746F201B
:1015FA0073656E640041434B0064617461207265D7
:10160A006365697665642E20696E697469616C69BF
:10161A006E672073746F7000726573657474696E97
:06162A00672074776900DF
:00000001FF
