:100000000C9472000C9486000C9486000C9486006C
:100010000C9486000C9486000C9486000C94860048
:100020000C9486000C9486000C9486000C94860038
:100030000C9486000C9486000C9486000C94860028
:100040000C9486000C9486000C9486000C94860018
:100050000C9486000C9486000C9486000C94860008
:100060000C9486000C9488000C9486000C948600F6
:100070000C9486000C9486000C9486000C948600E8
:100080000C9486000C9486000C9486000C948600D8
:100090000C9486000C9486000C9486000C948600C8
:1000A0000C9486000C9486000C9486000C948600B8
:1000B0000C9486000C9486000C9486000C948600A8
:1000C0000C9486000C9486000C9486000C94860098
:1000D0000C9486000C9486000C9486000C94860088
:1000E0000C94860011241FBECFEFD1E2DEBFCDBF3E
:1000F00000E00CBF12E0A0E0B2E001C01D92A7300A
:10010000B107E1F70E94D1000C940C010C9400009F
:100110001F920F920FB60F9211242F938F939F93DC
:1001200013982FEF81E19AE7215080409040E1F74A
:1001300000C00000139A9F918F912F910F900FBED6
:100140000F901F901895E0ECF0E080818260808332
:10015000E1ECF0E080818861808386E08093C200DA
:1001600089E190E09093C5008093C4000895E1E296
:10017000F1E088E0808380ED93E090932901809303
:100180002801A3E7B0E08C9182608C938081856028
:10019000808308952091C00025FFFCCF8093C60086
:1001A000089581B1886381B98FEF82B90E94A3005D
:1001B000789414982FEF89E698E121508040904080
:1001C000E1F700C00000149A81E09091C00095FD15
:1001D000809301029091C00097FD8093030290915B
:1001E0000302992341F09091C6009093000210926F
:1001F00003028093020290910202992331F39091BD
:100200000102992311F3909100029093C60010927D
:0C021000010210920202D9CFF894FFCF37
:00000001FF
