:100000000C9472000C947E000C947E000C947E0084
:100010000C947E000C947E000C947E000C947E0068
:100020000C947E000C947E000C947E000C947E0058
:100030000C947E000C947E000C947E000C947E0048
:100040000C947E000C947E000C947E000C947E0038
:100050000C947E000C947E000C947E000C947E0028
:100060000C947E000C947E000C947E000C947E0018
:100070000C947E000C947E000C947E000C947E0008
:100080000C947E000C947E000C947E000C947E00F8
:100090000C947E000C947E000C947E000C947E00E8
:1000A0000C947E000C947E000C947E000C947E00D8
:1000B0000C947E000C947E000C947E000C947E00C8
:1000C0000C947E000C947E000C947E000C947E00B8
:1000D0000C947E000C947E000C947E000C947E00A8
:1000E0000C947E0011241FBECFEFD1E2DEBFCDBF46
:1000F00000E00CBF0E9480000C94C3000C94000030
:1001000088E381B93FED8FEF2FEE97EF32B94FE3E0
:100110005DE063E0415050406040E1F700C0000006
:1001200082B94FE35DE063E0415050406040E1F749
:1001300000C0000022B94FE35DE063E04150504051
:100140006040E1F700C0000082B94FE35DE063E08A
:10015000415050406040E1F700C0000092B94FE3C9
:100160005DE063E0415050406040E1F700C00000B6
:1001700082B94FE35DE063E0415050406040E1F7F9
:0A01800000C00000C3CFF894FFCFC9
:00000001FF
