:100000000C9472000C9486000C9486000C9486006C
:100010000C9486000C9486000C9486000C94860048
:100020000C9486000C9486000C9486000C94860038
:100030000C9486000C9486000C9486000C94860028
:100040000C9486000C9486000C9486000C94860018
:100050000C9486000C9486000C9486000C94860008
:100060000C9486000C9492000C9486000C948600EC
:100070000C9486000C9486000C9486000C948600E8
:100080000C9486000C9486000C9486000C948600D8
:100090000C9486000C9486000C9486000C948600C8
:1000A0000C9486000C9486000C9486000C948600B8
:1000B0000C9486000C9486000C9486000C948800A6
:1000C0000C9486000C9486000C9486000C94860098
:1000D0000C9486000C9486000C9486000C94860088
:1000E0000C94860011241FBECFEFD1E2DEBFCDBF3E
:1000F00000E00CBF22E0A0E0B2E001C01D92A238F7
:10010000B207E1F70E9488010C94A6010C9400004C
:100110001F920F920FB60F9211240F900FBE0F90E7
:100120001F9018951F920F920FB60F9211240BB6C5
:100130000F922F933F934F935F936F937F938F9380
:100140009F93AF93BF93EF93FF938FEF82B92FE904
:1001500086E891E0215080409040E1F700C0000027
:100160008091C60090E00E948101FF91EF91BF91C4
:10017000AF919F918F917F916F915F914F913F913F
:100180002F910F900BBE0F900FBE0F901F901895E0
:10019000E091010280910002E81729F0F0E0EE5FA3
:1001A000FD4F8081089580E0089590910102809133
:1001B0000002981771F0E92FF0E0EE5FFD4F8081AB
:1001C0009F5F97FD03C09093010208951092010272
:1001D000089580E0089587EF82B983ED90E3019759
:1001E000F1F700C000008FEF82B908958FEE82B959
:1001F00083ED90E30197F1F700C000008FEF82B923
:1002000008958FEE82B983ED90E30197F1F700C076
:1002100000008FEF82B983ED90E30197F1F700C002
:1002200000008FEE82B983ED90E30197F1F700C0F3
:1002300000008FEF82B983ED90E30197F1F700C0E2
:1002400000008FEE82B983ED90E30197F1F700C0D3
:1002500000008FEF82B908958FED82B983ED90E3AE
:100260000197F1F700C000008FEF82B908958FED7C
:1002700082B98FE493EC0197F1F700C000008FEC96
:1002800082B98FE493EC0197F1F700C0000087EE8C
:1002900082B98FE493EC0197F1F700C0000087EF7B
:1002A00082B98FE493EC0197F1F700C000008FEF63
:1002B00082B90895E0ECF0E0808182608083E1EC17
:1002C000F0E080818869808386E08093C20082E0CC
:1002D00090E09093C5008093C4000895E1E2F1E0BE
:1002E00088E0808380ED93E090932901809328013A
:1002F000A3E7B0E08C9182608C93808185608083DD
:1003000008952091C00025FFFCCF8093C60008957A
:1003100088E381B90E942C012FE38DE093E0215006
:1003200080409040E1F700C000000E945A010E9406
:1003300001012FE38DE093E0215080409040E1F7F0
:1003400000C00000789487EF82B9FFCFF894FFCF08
:00000001FF
